{
  "transactions": [
    {
      "hash": "0x07094efcfa3e5e238d71972c3485537ac906c8634d93440071224196d27f792c",
      "transactionType": "CALL",
      "contractName": null,
      "contractAddress": "0x2eb61eceaa12cd5f16102d4005fb9d2abe7d48d8",
      "function": "approve(address,uint256)",
      "arguments": [
        "0xeE567Fe1712Faf6149d80dA1E6934E354124CfE3",
        "115792089237316195423570985008687907853269984665640564039457584007913129639935"
      ],
      "transaction": {
        "from": "0x1e75db191f21e033648303d3c296daba05f1d3b4",
        "to": "0x2eb61eceaa12cd5f16102d4005fb9d2abe7d48d8",
        "gas": "0x9382",
        "value": "0x0",
        "input": "0x095ea7b3000000000000000000000000ee567fe1712faf6149d80da1e6934e354124cfe3ffffffffffffffffffffffffffffffffffffffffffffffffffffffffffffffff",
        "nonce": "0x9",
        "chainId": "0xaa36a7"
      },
      "additionalContracts": [],
      "isFixedGasLimit": false
    },
    {
      "hash": "0xe64923f9eb27c2d5cf27ea69623cd6cfcbf175fec44b866274f31b740c81e156",
      "transactionType": "CALL",
      "contractName": null,
      "contractAddress": "0xee567fe1712faf6149d80da1e6934e354124cfe3",
      "function": "swapExactTokensForETH(uint256,uint256,address[],address,uint256)",
      "arguments": [
        "1000000000000000000",
        "0",
        "[0x2eb61ECeaa12cd5F16102D4005Fb9d2ABE7D48d8, 0xfFf9976782d46CC05630D1f6eBAb18b2324d6B14]",
        "0x1e75dB191f21E033648303D3C296dAba05f1D3b4",
        "1768501032"
      ],
      "transaction": {
        "from": "0x1e75db191f21e033648303d3c296daba05f1d3b4",
        "to": "0xee567fe1712faf6149d80da1e6934e354124cfe3",
        "gas": "0x268e4",
        "value": "0x0",
        "input": "0x18cbafe50000000000000000000000000000000000000000000000000de0b6b3a7640000000000000000000000000000000000000000000000000000000000000000000000000000000000000000000000000000000000000000000000000000000000a00000000000000000000000001e75db191f21e033648303d3c296daba05f1d3b40000000000000000000000000000000000000000000000000000000069692f2800000000000000000000000000000000000000000000000000000000000000020000000000000000000000002eb61eceaa12cd5f16102d4005fb9d2abe7d48d8000000000000000000000000fff9976782d46cc05630d1f6ebab18b2324d6b14",
        "nonce": "0xa",
        "chainId": "0xaa36a7"
      },
      "additionalContracts": [],
      "isFixedGasLimit": false
    }
  ],
  "receipts": [
    {
      "status": "0x1",
      "cumulativeGasUsed": "0xbdd709",
      "logs": [
        {
          "address": "0x2eb61eceaa12cd5f16102d4005fb9d2abe7d48d8",
          "topics": [
            "0x8c5be1e5ebec7d5bd14f71427d1e84f3dd0314c0f7b2291e5b200ac8c7c3b925",
            "0x0000000000000000000000001e75db191f21e033648303d3c296daba05f1d3b4",
            "0x000000000000000000000000ee567fe1712faf6149d80da1e6934e354124cfe3"
          ],
          "data": "0xffffffffffffffffffffffffffffffffffffffffffffffffffffffffffffffff",
          "blockHash": "0x029255e87db7a44793cbc3033bdd0b021dacebd86ffe753bcbe0ea00ed96ccc1",
          "blockNumber": "0x995ce0",
          "blockTimestamp": "0x69692e14",
          "transactionHash": "0x07094efcfa3e5e238d71972c3485537ac906c8634d93440071224196d27f792c",
          "transactionIndex": "0x48",
          "logIndex": "0x78",
          "removed": false
        }
      ],
      "logsBloom": "0x00000010000000000000000000000000000081000000000000000000000000000000000000000000000000000000000000000000000000000000000008200000000000000000000000000000000000000000000001000000000000000000000000000000000000000000000000000000000000000000000000000000000000000000000000000000000000000000000000000000000000000000000000000000020000000000000000000000000000000000000000000000000000800000000000000000000000000000000000000000000000000000000000000010000000004010000000000000000000000000000000000000000000000080000000000000",
      "type": "0x2",
      "transactionHash": "0x07094efcfa3e5e238d71972c3485537ac906c8634d93440071224196d27f792c",
      "transactionIndex": "0x48",
      "blockHash": "0x029255e87db7a44793cbc3033bdd0b021dacebd86ffe753bcbe0ea00ed96ccc1",
      "blockNumber": "0x995ce0",
      "gasUsed": "0x6acc",
      "effectiveGasPrice": "0x414d4759",
      "from": "0x1e75db191f21e033648303d3c296daba05f1d3b4",
      "to": "0x2eb61eceaa12cd5f16102d4005fb9d2abe7d48d8",
      "contractAddress": null
    },
    {
      "status": "0x1",
      "cumulativeGasUsed": "0xbf95a8",
      "logs": [
        {
          "address": "0x2eb61eceaa12cd5f16102d4005fb9d2abe7d48d8",
          "topics": [
            "0xddf252ad1be2c89b69c2b068fc378daa952ba7f163c4a11628f55a4df523b3ef",
            "0x0000000000000000000000001e75db191f21e033648303d3c296daba05f1d3b4",
            "0x0000000000000000000000001c3e7fd06a641f015ce08fbb0e3ef180c4ba0547"
          ],
          "data": "0x0000000000000000000000000000000000000000000000000de0b6b3a7640000",
          "blockHash": "0x029255e87db7a44793cbc3033bdd0b021dacebd86ffe753bcbe0ea00ed96ccc1",
          "blockNumber": "0x995ce0",
          "blockTimestamp": "0x69692e14",
          "transactionHash": "0xe64923f9eb27c2d5cf27ea69623cd6cfcbf175fec44b866274f31b740c81e156",
          "transactionIndex": "0x49",
          "logIndex": "0x79",
          "removed": false
        },
        {
          "address": "0xfff9976782d46cc05630d1f6ebab18b2324d6b14",
          "topics": [
            "0xddf252ad1be2c89b69c2b068fc378daa952ba7f163c4a11628f55a4df523b3ef",
            "0x0000000000000000000000001c3e7fd06a641f015ce08fbb0e3ef180c4ba0547",
            "0x000000000000000000000000ee567fe1712faf6149d80da1e6934e354124cfe3"
          ],
          "data": "0x0000000000000000000000000000000000000000000000000000002f359e84c0",
          "blockHash": "0x029255e87db7a44793cbc3033bdd0b021dacebd86ffe753bcbe0ea00ed96ccc1",
          "blockNumber": "0x995ce0",
          "blockTimestamp": "0x69692e14",
          "transactionHash": "0xe64923f9eb27c2d5cf27ea69623cd6cfcbf175fec44b866274f31b740c81e156",
          "transactionIndex": "0x49",
          "logIndex": "0x7a",
          "removed": false
        },
        {
          "address": "0x1c3e7fd06a641f015ce08fbb0e3ef180c4ba0547",
          "topics": [
            "0x1c411e9a96e071241c2f21f7726b17ae89e3cab4c78be50e062b03a9fffbbad1"
          ],
          "data": "0x00000000000000000000000000000000000000000000010d38787e43f5ba2e4500000000000000000000000000000000000000000000000000039667bd9a9b40",
          "blockHash": "0x029255e87db7a44793cbc3033bdd0b021dacebd86ffe753bcbe0ea00ed96ccc1",
          "blockNumber": "0x995ce0",
          "blockTimestamp": "0x69692e14",
          "transactionHash": "0xe64923f9eb27c2d5cf27ea69623cd6cfcbf175fec44b866274f31b740c81e156",
          "transactionIndex": "0x49",
          "logIndex": "0x7b",
          "removed": false
        },
        {
          "address": "0x1c3e7fd06a641f015ce08fbb0e3ef180c4ba0547",
          "topics": [
            "0xd78ad95fa46c994b6551d0da85fc275fe613ce37657fb8d5e3d130840159d822",
            "0x000000000000000000000000ee567fe1712faf6149d80da1e6934e354124cfe3",
            "0x000000000000000000000000ee567fe1712faf6149d80da1e6934e354124cfe3"
          ],
          "data": "0x0000000000000000000000000000000000000000000000000de0b6b3a7640000000000000000000000000000000000000000000000000000000000000000000000000000000000000000000000000000000000000000000000000000000000000000000000000000000000000000000000000000000000000000002f359e84c0",
          "blockHash": "0x029255e87db7a44793cbc3033bdd0b021dacebd86ffe753bcbe0ea00ed96ccc1",
          "blockNumber": "0x995ce0",
          "blockTimestamp": "0x69692e14",
          "transactionHash": "0xe64923f9eb27c2d5cf27ea69623cd6cfcbf175fec44b866274f31b740c81e156",
          "transactionIndex": "0x49",
          "logIndex": "0x7c",
          "removed": false
        },
        {
          "address": "0xfff9976782d46cc05630d1f6ebab18b2324d6b14",
          "topics": [
            "0x7fcf532c15f0a6db0bd6d0e038bea71d30d808c7d98cb3bf7268a95bf5081b65",
            "0x000000000000000000000000ee567fe1712faf6149d80da1e6934e354124cfe3"
          ],
          "data": "0x0000000000000000000000000000000000000000000000000000002f359e84c0",
          "blockHash": "0x029255e87db7a44793cbc3033bdd0b021dacebd86ffe753bcbe0ea00ed96ccc1",
          "blockNumber": "0x995ce0",
          "blockTimestamp": "0x69692e14",
          "transactionHash": "0xe64923f9eb27c2d5cf27ea69623cd6cfcbf175fec44b866274f31b740c81e156",
          "transactionIndex": "0x49",
          "logIndex": "0x7d",
          "removed": false
        }
      ],
      "logsBloom": "0x00200010000000000000000080000000000081000000000000000000000000000000000000000000000000000000000000000000000000000000000008000000000000000000000000000008000000200000000001400000000000000000000000000000000000000000000000000000000000000000040000100010080000000040000000000000000000040000000000000000000000080000004000000000000020000000000000000000100000000000000000000000000000800000000000000002000000000002001000000000000000000000001000000012000000004000000000000000000000000000000000800000000000000080000000000000",
      "type": "0x2",
      "transactionHash": "0xe64923f9eb27c2d5cf27ea69623cd6cfcbf175fec44b866274f31b740c81e156",
      "transactionIndex": "0x49",
      "blockHash": "0x029255e87db7a44793cbc3033bdd0b021dacebd86ffe753bcbe0ea00ed96ccc1",
      "blockNumber": "0x995ce0",
      "gasUsed": "0x1be9f",
      "effectiveGasPrice": "0x414d4759",
      "from": "0x1e75db191f21e033648303d3c296daba05f1d3b4",
      "to": "0xee567fe1712faf6149d80da1e6934e354124cfe3",
      "contractAddress": null
    }
  ],
  "libraries": [],
  "pending": [],
  "returns": {},
  "timestamp": 1768500757691,
  "chain": 11155111,
  "commit": null
}